{
  "contractName": "Touch",
  "abi": [
    {
      "inputs": [],
      "payable": false,
      "stateMutability": "nonpayable",
      "type": "constructor"
    },
    {
      "constant": true,
      "inputs": [],
      "name": "value",
      "outputs": [
        {
          "internalType": "uint256",
          "name": "",
          "type": "uint256"
        }
      ],
      "payable": false,
      "stateMutability": "view",
      "type": "function"
    },
    {
      "constant": false,
      "inputs": [],
      "name": "touch",
      "outputs": [],
      "payable": false,
      "stateMutability": "nonpayable",
      "type": "function"
    }
  ],
  "bytecode": "0x6080604052348015600f57600080fd5b5042600081905550609f806100256000396000f3fe6080604052348015600f57600080fd5b506004361060325760003560e01c80633fa4f245146037578063a55526db146053575b600080fd5b603d605b565b6040518082815260200191505060405180910390f35b60596061565b005b60005481565b4260008190555056fea265627a7a7231582064bdf6147cb4bfd2b4d75e08b2de4f8ea61a990c11db7787eb23d265b578f68564736f6c63430005100032",
  "source": "pragma solidity >=0.4.21 <0.7.0;\n\ncontract Touch {\n  uint public value;\n\n  constructor() public {\n    value = now;\n  }\n\n  function touch() public {\n    value = now;\n  }\n}\n",
  "sourcePath": "/Users/tukula/toto/reptilians/contracts/Touch.sol",
  "compiler": {
    "name": "solc",
    "version": "0.5.16+commit.9c3226ce.Emscripten.clang"
  },
  "schemaVersion": "3.2.0",
  "updatedAt": "2020-06-21T17:04:35.688Z",
  "devdoc": {
    "methods": {}
  },
  "userdoc": {
    "methods": {}
  }
}